{
  "contractName": "Auction",
  "abi": [
    {
      "constant": true,
      "inputs": [],
      "name": "Charity",
      "outputs": [
        {
          "name": "",
          "type": "address"
        }
      ],
      "payable": false,
      "stateMutability": "view",
      "type": "function"
    },
    {
      "constant": true,
      "inputs": [],
      "name": "auctionEndTime",
      "outputs": [
        {
          "name": "",
          "type": "uint256"
        }
      ],
      "payable": false,
      "stateMutability": "view",
      "type": "function"
    },
    {
      "constant": true,
      "inputs": [],
      "name": "Auctioneer",
      "outputs": [
        {
          "name": "",
          "type": "address"
        }
      ],
      "payable": false,
      "stateMutability": "view",
      "type": "function"
    },
    {
      "constant": true,
      "inputs": [],
      "name": "highestBid",
      "outputs": [
        {
          "name": "",
          "type": "uint256"
        }
      ],
      "payable": false,
      "stateMutability": "view",
      "type": "function"
    },
    {
      "inputs": [
        {
          "name": "_name",
          "type": "string"
        },
        {
          "name": "_biddingTime",
          "type": "uint256"
        },
        {
          "name": "_Auctioneer",
          "type": "address"
        },
        {
          "name": "_Charity",
          "type": "address"
        },
        {
          "name": "_charitable",
          "type": "bool"
        }
      ],
      "payable": false,
      "stateMutability": "nonpayable",
      "type": "constructor"
    },
    {
      "anonymous": false,
      "inputs": [
        {
          "indexed": false,
          "name": "bidder",
          "type": "address"
        },
        {
          "indexed": false,
          "name": "amount",
          "type": "uint256"
        }
      ],
      "name": "HighestBidChange",
      "type": "event"
    },
    {
      "anonymous": false,
      "inputs": [
        {
          "indexed": false,
          "name": "winner",
          "type": "address"
        },
        {
          "indexed": false,
          "name": "amount",
          "type": "uint256"
        }
      ],
      "name": "AuctionEnded",
      "type": "event"
    },
    {
      "constant": false,
      "inputs": [],
      "name": "bid",
      "outputs": [
        {
          "name": "result",
          "type": "bool"
        }
      ],
      "payable": true,
      "stateMutability": "payable",
      "type": "function"
    },
    {
      "constant": false,
      "inputs": [],
      "name": "AuctionEnd",
      "outputs": [
        {
          "name": "result",
          "type": "bool"
        }
      ],
      "payable": false,
      "stateMutability": "nonpayable",
      "type": "function"
    }
  ],
  "bytecode": "0x608060405234801561001057600080fd5b50604051610c45380380610c458339810180604052810190808051820192919060200180519060200190929190805190602001909291908051906020019092919080519060200190929190505050846000908051906020019061007492919061013d565b5082600160006101000a81548173ffffffffffffffffffffffffffffffffffffffff021916908373ffffffffffffffffffffffffffffffffffffffff16021790555080600460006101000a81548160ff021916908315150217905550600460009054906101000a900460ff16156101275781600260006101000a81548173ffffffffffffffffffffffffffffffffffffffff021916908373ffffffffffffffffffffffffffffffffffffffff1602179055505b603c8402420160038190555050505050506101e2565b828054600181600116156101000203166002900490600052602060002090601f016020900481019282601f1061017e57805160ff19168380011785556101ac565b828001600101855582156101ac579182015b828111156101ab578251825591602001919060010190610190565b5b5090506101b991906101bd565b5090565b6101df91905b808211156101db5760008160009055506001016101c3565b5090565b90565b610a54806101f16000396000f300608060405260043610610078576000357c0100000000000000000000000000000000000000000000000000000000900463ffffffff1680631998aeef1461007d578063258c2a2d1461009f57806332ffdf80146100f65780634b449cba14610125578063af96af5414610150578063d57bde79146101a7575b600080fd5b6100856101d2565b604051808215151515815260200191505060405180910390f35b3480156100ab57600080fd5b506100b46105bc565b604051808273ffffffffffffffffffffffffffffffffffffffff1673ffffffffffffffffffffffffffffffffffffffff16815260200191505060405180910390f35b34801561010257600080fd5b5061010b6105e2565b604051808215151515815260200191505060405180910390f35b34801561013157600080fd5b5061013a610996565b6040518082815260200191505060405180910390f35b34801561015c57600080fd5b5061016561099c565b604051808273ffffffffffffffffffffffffffffffffffffffff1673ffffffffffffffffffffffffffffffffffffffff16815260200191505060405180910390f35b3480156101b357600080fd5b506101bc6109c2565b6040518082815260200191505060405180910390f35b6000600354421115151561024e576040517f08c379a00000000000000000000000000000000000000000000000000000000081526004018080602001828103825260168152602001807f41756374696f6e20616c726561647920656e6465642e0000000000000000000081525060200191505060405180910390fd5b600554341115156102c7576040517f08c379a000000000000000000000000000000000000000000000000000000000815260040180806020018281038252601e8152602001807f546865726520616c7265616479206973206120686967686572206269642e000081525060200191505060405180910390fd5b600160009054906101000a900473ffffffffffffffffffffffffffffffffffffffff1673ffffffffffffffffffffffffffffffffffffffff163373ffffffffffffffffffffffffffffffffffffffff16141515156103b3576040517f08c379a00000000000000000000000000000000000000000000000000000000081526004018080602001828103825260228152602001807f41756374696f6e6565722063616e2774206a6f696e207468652061756374696f81526020017f6e2100000000000000000000000000000000000000000000000000000000000081525060400191505060405180910390fd5b600260009054906101000a900473ffffffffffffffffffffffffffffffffffffffff1673ffffffffffffffffffffffffffffffffffffffff163373ffffffffffffffffffffffffffffffffffffffff1614151515610479576040517f08c379a000000000000000000000000000000000000000000000000000000000815260040180806020018281038252601f8152602001807f436861726974792063616e2774206a6f696e207468652061756374696f6e210081525060200191505060405180910390fd5b60006005541415156105025761048d6109c8565b1515610501576040517f08c379a000000000000000000000000000000000000000000000000000000000815260040180806020018281038252600c8152602001807f526566756e64206661696c21000000000000000000000000000000000000000081525060200191505060405180910390fd5b5b33600460016101000a81548173ffffffffffffffffffffffffffffffffffffffff021916908373ffffffffffffffffffffffffffffffffffffffff160217905550346005819055507fc7c44198c50609c4d5a38ff2fed86cf32705c857563082da1a46c041edd5b73f3334604051808373ffffffffffffffffffffffffffffffffffffffff1673ffffffffffffffffffffffffffffffffffffffff1681526020018281526020019250505060405180910390a16001905090565b600260009054906101000a900473ffffffffffffffffffffffffffffffffffffffff1681565b6000600160009054906101000a900473ffffffffffffffffffffffffffffffffffffffff1673ffffffffffffffffffffffffffffffffffffffff163373ffffffffffffffffffffffffffffffffffffffff161415156106cf576040517f08c379a00000000000000000000000000000000000000000000000000000000081526004018080602001828103825260258152602001807f4f6e6c792041756374696f6e6565722063616e20656e6420746869732041756381526020017f74696f6e2100000000000000000000000000000000000000000000000000000081525060400191505060405180910390fd5b6003544210151515610749576040517f08c379a00000000000000000000000000000000000000000000000000000000081526004018080602001828103825260168152602001807f41756374696f6e206e6f742079657420656e6465642e0000000000000000000081525060200191505060405180910390fd5b600660009054906101000a900460ff161515156107f4576040517f08c379a00000000000000000000000000000000000000000000000000000000081526004018080602001828103825260238152602001807f61756374696f6e456e642068617320616c7265616479206265656e2063616c6c81526020017f65642e000000000000000000000000000000000000000000000000000000000081525060400191505060405180910390fd5b6001600660006101000a81548160ff0219169083151502179055507fdaec4582d5d9595688c8c98545fdd1c696d41c6aeaeb636737e84ed2f5c00eda600460019054906101000a900473ffffffffffffffffffffffffffffffffffffffff16600554604051808373ffffffffffffffffffffffffffffffffffffffff1673ffffffffffffffffffffffffffffffffffffffff1681526020018281526020019250505060405180910390a1600460009054906101000a900460ff161561092357600260009054906101000a900473ffffffffffffffffffffffffffffffffffffffff1673ffffffffffffffffffffffffffffffffffffffff166108fc6005549081150290604051600060405180830381858888f1935050505015801561091d573d6000803e3d6000fd5b5061098f565b600160009054906101000a900473ffffffffffffffffffffffffffffffffffffffff1673ffffffffffffffffffffffffffffffffffffffff166108fc6005549081150290604051600060405180830381858888f1935050505015801561098d573d6000803e3d6000fd5b505b6001905090565b60035481565b600160009054906101000a900473ffffffffffffffffffffffffffffffffffffffff1681565b60055481565b6000600460019054906101000a900473ffffffffffffffffffffffffffffffffffffffff1673ffffffffffffffffffffffffffffffffffffffff166108fc6005549081150290604051600060405180830381858888f193505050509050905600a165627a7a72305820b49b038d83ea6317c1a89e0eadb58d100773b633dd81b956f050c7f4d5a47d110029",
  "source": "pragma solidity ^0.4.22;\r\n\r\ncontract Auction {\r\n    // 拍卖的参数。\r\n    //拍卖品的名字\r\n    string name;\r\n    //拍卖者\r\n    address public Auctioneer;\r\n    //慈善机构\r\n    address public Charity;\r\n    // 时间是unix的绝对时间戳（自1970-01-01以来的秒数）\r\n    // 或以秒为单位的时间段。\r\n    uint public auctionEndTime;\r\n\r\n    // 拍卖的当前状态\r\n    //是否为慈善拍卖\r\n    bool charitable;\r\n    //当前出价最高者\r\n    address private highestBidder;\r\n    //最高价\r\n    uint public highestBid;\r\n\r\n    // 拍卖结束后设为 true，将禁止所有的变更\r\n    bool ended;\r\n\r\n    // 变更触发的事件\r\n    event HighestBidChange(address bidder, uint amount);\r\n    event AuctionEnded(address winner, uint amount);\r\n\r\n    // 以下是所谓的 natspec 注释，可以通过三个斜杠来识别。\r\n    // 当用户被要求确认交易时将显示。\r\n\r\n    /// 以拍卖者地址 `_Auctioneer` 的名义，\r\n    /// 创建一个简单的拍卖，拍卖时间为 `_biddingTime`分钟 。\r\n    constructor(\r\n        string _name,\r\n        uint _biddingTime,\r\n        address _Auctioneer,\r\n        address _Charity,\r\n        bool _charitable\r\n    ) public {\r\n        name = _name;\r\n        Auctioneer = _Auctioneer;\r\n        charitable = _charitable;\r\n        if(charitable){\r\n            Charity = _Charity;\r\n        }\r\n        auctionEndTime = now + _biddingTime*60;\r\n    }\r\n\r\n    /// 退款（当该出价已被超越）\r\n    function Refund() private returns(bool) {\r\n        return highestBidder.send(highestBid);\r\n    }\r\n\r\n    /// 对拍卖进行出价，具体的出价随交易一起发送。\r\n    /// 如果没有在拍卖中胜出，则返还出价。\r\n    function bid() public payable returns(bool result){\r\n        // 参数不是必要的。因为所有的信息已经包含在了交易中。\r\n        // 对于能接收以太币的函数，关键字 payable 是必须的。\r\n\r\n        // 如果拍卖已结束，撤销函数的调用。\r\n        require(\r\n            now <= auctionEndTime,\r\n            \"Auction already ended.\"\r\n        );\r\n\r\n        // 如果出价不够高，返还你的钱\r\n        require(\r\n            msg.value > highestBid,\r\n            \"There already is a higher bid.\"\r\n        );\r\n        //出价者不能为拍卖者\r\n        require(\r\n            msg.sender != Auctioneer,\r\n            \"Auctioneer can't join the auction!\"\r\n        );\r\n        //出价者不能为慈善机构 \r\n        require(\r\n            msg.sender != Charity,\r\n            \"Charity can't join the auction!\"\r\n        );\r\n        if (highestBid != 0) {\r\n            require(\r\n                Refund(),\r\n                \"Refund fail!\"\r\n            );\r\n        }\r\n        highestBidder = msg.sender;\r\n        highestBid = msg.value;\r\n        emit HighestBidChange(msg.sender, msg.value);\r\n        return true;\r\n    }\r\n\r\n\r\n    /// 结束拍卖，并把最高的出价发送给受益人\r\n    function AuctionEnd() public returns(bool result){\r\n        // 对于可与其他合约交互的函数（意味着它会调用其他函数或发送以太币），\r\n        // 一个好的指导方针是将其结构分为三个阶段：\r\n        // 1. 检查条件\r\n        // 2. 执行动作 (可能会改变条件)\r\n        // 3. 与其他合约交互\r\n        // 如果这些阶段相混合，其他的合约可能会回调当前合约并修改状态，\r\n        // 或者导致某些效果（比如支付以太币）多次生效。\r\n        // 如果合约内调用的函数包含了与外部合约的交互，\r\n        // 则它也会被认为是与外部合约有交互的。\r\n\r\n        // 1. 条件\r\n        require(msg.sender==Auctioneer,\"Only Auctioneer can end this Auction!\");\r\n        require(now >= auctionEndTime, \"Auction not yet ended.\");\r\n        require(!ended, \"auctionEnd has already been called.\");\r\n\r\n        // 2. 生效\r\n        ended = true;\r\n        emit AuctionEnded(highestBidder, highestBid);\r\n\r\n        // 3. 交互\r\n        if(charitable){\r\n            Charity.transfer(highestBid);\r\n        }\r\n        else{\r\n            Auctioneer.transfer(highestBid);    \r\n        }\r\n        return true;\r\n    }\r\n    \r\n}\r\n",
  "sourcePath": "C:\\Users\\o\\Desktop\\dapp\\contracts\\Auction.sol",
  "compiler": {
    "name": "solc",
    "version": "0.4.24+commit.e67f0147.Emscripten.clang"
  },
  "schemaVersion": "2.0.1",
  "updatedAt": "2018-12-25T16:06:23.561Z"
}